{
  "transactions": [
    {
      "hash": "0xfe1204288748df8f3d65374dd057e7fd5b77a0ad6b5c5718c2bae70251978e3c",
      "transactionType": "CALL",
      "contractName": "W3BCXISoulboundToken",
      "contractAddress": "0x27e28cF55A319E6aF0b7a23D8b623b8bc2c50485",
      "function": "addToWhitelist(address[])",
      "arguments": [
        "[0xbf4EE65FE67C291DfC34ffe2455ecA9d97DF9148, 0xb7B943fFbA78e33589971e630AD6EB544252D88C]"
      ],
      "transaction": {
        "type": "0x02",
        "from": "0xb7b943ffba78e33589971e630ad6eb544252d88c",
        "to": "0x27e28cf55a319e6af0b7a23d8b623b8bc2c50485",
        "gas": "0x178fa",
        "value": "0x0",
        "data": "0x7f64978300000000000000000000000000000000000000000000000000000000000000200000000000000000000000000000000000000000000000000000000000000002000000000000000000000000bf4ee65fe67c291dfc34ffe2455eca9d97df9148000000000000000000000000b7b943ffba78e33589971e630ad6eb544252d88c",
        "nonce": "0x1f7",
        "accessList": []
      },
      "additionalContracts": [],
      "isFixedGasLimit": false
    }
  ],
  "receipts": [
    {
      "transactionHash": "0xfe1204288748df8f3d65374dd057e7fd5b77a0ad6b5c5718c2bae70251978e3c",
      "transactionIndex": "0x9",
      "blockHash": "0x58f5a6f9eb226968e364d8561c6b6b5d5972de193c11dc9780f2246136d40ad0",
      "blockNumber": "0x60fde4",
      "from": "0xb7B943fFbA78e33589971e630AD6EB544252D88C",
      "to": "0x27e28cF55A319E6aF0b7a23D8b623b8bc2c50485",
      "cumulativeGasUsed": "0x98c24",
      "gasUsed": "0x110ee",
      "contractAddress": null,
      "logs": [],
      "status": "0x1",
      "logsBloom": "0x00000000000000000000000000000000000000000000000000000000000000000000000000000000000000000000000000000000000000000000000000000000000000000000000000000000000000000000000000000000000000000000000000000000000000000000000000000000000000000000000000000000000000000000000000000000000000000000000000000000000000000000000000000000000000000000000000000000000000000000000000000000000000000000000000000000000000000000000000000000000000000000000000000000000000000000000000000000000000000000000000000000000000000000000000000000",
      "type": "0x2",
      "effectiveGasPrice": "0x3c5286591"
    }
  ],
  "libraries": [],
  "pending": [],
  "returns": {},
  "timestamp": 1721656157,
  "chain": 11155111,
  "multi": false,
  "commit": "8b4d350"
}